{
  "contractName": "factory",
  "abi": [
    {
      "constant": true,
      "inputs": [
        {
          "name": "",
          "type": "uint256"
        }
      ],
      "name": "deployedCampaigns",
      "outputs": [
        {
          "name": "",
          "type": "address"
        }
      ],
      "payable": false,
      "stateMutability": "view",
      "type": "function"
    },
    {
      "constant": false,
      "inputs": [
        {
          "name": "minimum",
          "type": "uint256"
        }
      ],
      "name": "createCampign",
      "outputs": [],
      "payable": false,
      "stateMutability": "nonpayable",
      "type": "function"
    },
    {
      "constant": true,
      "inputs": [],
      "name": "getDeployedCampaigns",
      "outputs": [
        {
          "name": "",
          "type": "address[]"
        }
      ],
      "payable": false,
      "stateMutability": "view",
      "type": "function"
    }
  ],
  "bytecode": "0x608060405234801561001057600080fd5b50610e56806100206000396000f300608060405260043610610057576000357c0100000000000000000000000000000000000000000000000000000000900463ffffffff168063339d50a51461005c5780634acb9d4f146100c9578063fc4baac814610135575b600080fd5b34801561006857600080fd5b5061008760048036038101908080359060200190929190505050610162565b604051808273ffffffffffffffffffffffffffffffffffffffff1673ffffffffffffffffffffffffffffffffffffffff16815260200191505060405180910390f35b3480156100d557600080fd5b506100de6101a0565b6040518080602001828103825283818151815260200191508051906020019060200280838360005b83811015610121578082015181840152602081019050610106565b505050509050019250505060405180910390f35b34801561014157600080fd5b506101606004803603810190808035906020019092919050505061022e565b005b60008181548110151561017157fe5b906000526020600020016000915054906101000a900473ffffffffffffffffffffffffffffffffffffffff1681565b6060600080548060200260200160405190810160405280929190818152602001828054801561022457602002820191906000526020600020905b8160009054906101000a900473ffffffffffffffffffffffffffffffffffffffff1673ffffffffffffffffffffffffffffffffffffffff16815260200190600101908083116101da575b5050505050905090565b6000813361023a610300565b808381526020018273ffffffffffffffffffffffffffffffffffffffff1673ffffffffffffffffffffffffffffffffffffffff16815260200192505050604051809103906000f080158015610293573d6000803e3d6000fd5b50905060008190806001815401808255809150509060018203906000526020600020016000909192909190916101000a81548173ffffffffffffffffffffffffffffffffffffffff021916908373ffffffffffffffffffffffffffffffffffffffff160217905550505050565b604051610b1a80610311833901905600608060405234801561001057600080fd5b50604051604080610b1a8339810180604052810190808051906020019092919080519060200190929190505050806000806101000a81548173ffffffffffffffffffffffffffffffffffffffff021916908373ffffffffffffffffffffffffffffffffffffffff160217905550816001819055505050610a85806100956000396000f300608060405260043610610099576000357c0100000000000000000000000000000000000000000000000000000000900463ffffffff168063034410061461009e5780630a144391146100cb578063481c6a751461012657806381d12c581461017d57806382fde0931461026f5780638a9cfd551461029a578063aaffadf31461032d578063d7bb99ba14610358578063d7d1bbdb14610362575b600080fd5b3480156100aa57600080fd5b506100c96004803603810190808035906020019092919050505061038f565b005b3480156100d757600080fd5b5061010c600480360381019080803573ffffffffffffffffffffffffffffffffffffffff1690602001909291905050506104d9565b604051808215151515815260200191505060405180910390f35b34801561013257600080fd5b5061013b6104f9565b604051808273ffffffffffffffffffffffffffffffffffffffff1673ffffffffffffffffffffffffffffffffffffffff16815260200191505060405180910390f35b34801561018957600080fd5b506101a86004803603810190808035906020019092919050505061051e565b60405180806020018681526020018573ffffffffffffffffffffffffffffffffffffffff1673ffffffffffffffffffffffffffffffffffffffff16815260200184151515158152602001838152602001828103825287818151815260200191508051906020019080838360005b83811015610230578082015181840152602081019050610215565b50505050905090810190601f16801561025d5780820380516001836020036101000a031916815260200191505b50965050505050505060405180910390f35b34801561027b57600080fd5b50610284610628565b6040518082815260200191505060405180910390f35b3480156102a657600080fd5b5061032b600480360381019080803590602001908201803590602001908080601f016020809104026020016040519081016040528093929190818152602001838380828437820191505050505050919291929080359060200190929190803573ffffffffffffffffffffffffffffffffffffffff16906020019092919050505061062e565b005b34801561033957600080fd5b506103426107a4565b6040518082815260200191505060405180910390f35b6103606107aa565b005b34801561036e57600080fd5b5061038d60048036038101908080359060200190929190505050610826565b005b60008060009054906101000a900473ffffffffffffffffffffffffffffffffffffffff1673ffffffffffffffffffffffffffffffffffffffff163373ffffffffffffffffffffffffffffffffffffffff161415156103ec57600080fd5b6003828154811015156103fb57fe5b90600052602060002090600502019050600260045481151561041957fe5b04816003015411151561042b57600080fd5b8060020160149054906101000a900460ff1615151561044957600080fd5b8060020160009054906101000a900473ffffffffffffffffffffffffffffffffffffffff1673ffffffffffffffffffffffffffffffffffffffff166108fc82600101549081150290604051600060405180830381858888f193505050501580156104b7573d6000803e3d6000fd5b5060018160020160146101000a81548160ff0219169083151502179055505050565b60026020528060005260406000206000915054906101000a900460ff1681565b6000809054906101000a900473ffffffffffffffffffffffffffffffffffffffff1681565b60038181548110151561052d57fe5b9060005260206000209060050201600091509050806000018054600181600116156101000203166002900480601f0160208091040260200160405190810160405280929190818152602001828054600181600116156101000203166002900480156105d95780601f106105ae576101008083540402835291602001916105d9565b820191906000526020600020905b8154815290600101906020018083116105bc57829003601f168201915b5050505050908060010154908060020160009054906101000a900473ffffffffffffffffffffffffffffffffffffffff16908060020160149054906101000a900460ff16908060030154905085565b60045481565b61063661096c565b6000809054906101000a900473ffffffffffffffffffffffffffffffffffffffff1673ffffffffffffffffffffffffffffffffffffffff163373ffffffffffffffffffffffffffffffffffffffff1614151561069157600080fd5b60a0604051908101604052808581526020018481526020018373ffffffffffffffffffffffffffffffffffffffff1681526020016000151581526020016000815250905060038190806001815401808255809150509060018203906000526020600020906005020160009091929091909150600082015181600001908051906020019061071f9291906109b4565b506020820151816001015560408201518160020160006101000a81548173ffffffffffffffffffffffffffffffffffffffff021916908373ffffffffffffffffffffffffffffffffffffffff16021790555060608201518160020160146101000a81548160ff0219169083151502179055506080820151816003015550505050505050565b60015481565b600154341115156107ba57600080fd5b6001600260003373ffffffffffffffffffffffffffffffffffffffff1673ffffffffffffffffffffffffffffffffffffffff16815260200190815260200160002060006101000a81548160ff021916908315150217905550600460008154809291906001019190505550565b600060038281548110151561083757fe5b90600052602060002090600502019050600260003373ffffffffffffffffffffffffffffffffffffffff1673ffffffffffffffffffffffffffffffffffffffff16815260200190815260200160002060009054906101000a900460ff16151561089f57600080fd5b8060040160003373ffffffffffffffffffffffffffffffffffffffff1673ffffffffffffffffffffffffffffffffffffffff16815260200190815260200160002060009054906101000a900460ff161515156108fa57600080fd5b60018160040160003373ffffffffffffffffffffffffffffffffffffffff1673ffffffffffffffffffffffffffffffffffffffff16815260200190815260200160002060006101000a81548160ff02191690831515021790555080600301600081548092919060010191905055505050565b60a0604051908101604052806060815260200160008152602001600073ffffffffffffffffffffffffffffffffffffffff168152602001600015158152602001600081525090565b828054600181600116156101000203166002900490600052602060002090601f016020900481019282601f106109f557805160ff1916838001178555610a23565b82800160010185558215610a23579182015b82811115610a22578251825591602001919060010190610a07565b5b509050610a309190610a34565b5090565b610a5691905b80821115610a52576000816000905550600101610a3a565b5090565b905600a165627a7a723058206b15895bbfc6d683777adeafa3b218f2130defc4f8c1dc5bed53998bde07f2290029a165627a7a723058202eaa3b6db68cc035541b56e03d653664f73ecad23a90fceefcb0bb8863a7aee80029",
  "source": "pragma solidity ^0.4.17 ;\r\n\r\ncontract factory {\r\n    address[] public deployedCampaigns;\r\n\r\n    function createCampign (uint minimum) public {\r\n        address newCampaign = new Campaign(minimum, msg.sender) ; // create new contract that deploys to network \r\n        deployedCampaigns.push(newCampaign); \r\n    }\r\n\r\n    function getDeployedCampaigns () public view returns (address[]) {\r\n        return deployedCampaigns; \r\n    }\r\n\r\n\r\n}\r\n\r\ncontract Campaign{\r\n    \r\n   struct Request{\r\n        string description;\r\n        uint value; \r\n        address recipient; \r\n        bool complete;\r\n        uint approvalCount;\r\n        mapping (address=>bool) approvals ; \r\n    }\r\n\r\n    address public manager; \r\n    uint public minContribution; \r\n    mapping (address=>bool) public approvers;\r\n    Request[] public requests; \r\n    uint public approversCount; \r\n\r\n    modifier restricted(){\r\n        require (msg.sender == manager);\r\n        _;\r\n    }\r\n\r\n    function Campaign (uint minimum, address creatore) public {\r\n        manager = creatore; \r\n        minContribution = minimum; \r\n    }\r\n\r\n    function contribute() public payable {\r\n        require( msg.value > minContribution );\r\n        \r\n        approvers[msg.sender] = true; \r\n        approversCount++; \r\n    }\r\n\r\n\r\n    function createRequest (string description, uint value, address recipient) public restricted {\r\n        Request memory newRequest = Request ({\r\n            description : description , \r\n            value : value , \r\n            recipient : recipient , \r\n            complete : false, \r\n            approvalCount : 0 \r\n        });\r\n    requests.push(newRequest) ; \r\n    }\r\n\r\n    function approveRequest (uint index) public {\r\n        Request storage request = requests[index] ; \r\n        require (approvers[msg.sender]) ; // make sure this address donated money \r\n        require (! request.approvals[msg.sender]) ; // make sure this address did not vote before \r\n\r\n        request.approvals[msg.sender] = true ; \r\n        request.approvalCount++; \r\n    }\r\n\r\n    function finalizeRequest (uint index) public restricted{\r\n        Request storage request = requests [index]; \r\n        require (request.approvalCount > (approversCount / 2));\r\n        require (! request.complete) ; \r\n        \r\n        request.recipient.transfer(request.value); \r\n        request.complete = true ;\r\n    }\r\n}",
  "sourcePath": "C:\\Users\\bchav\\OneDrive\\Desktop\\Projects\\Ethereum\\Projects\\lottery_conract\\lottery_contract\\contracts\\Lottery.sol",
  "compiler": {
    "name": "solc",
    "version": "0.4.26+commit.4563c3fc.Emscripten.clang"
  },
  "schemaVersion": "3.4.4",
  "updatedAt": "2022-02-01T15:25:28.344Z",
  "networkType": "ethereum",
  "devdoc": {
    "methods": {}
  },
  "userdoc": {
    "methods": {}
  }
}